{
  "_format": "hh-sol-artifact-1",
  "contractName": "GLXSwapV2Router",
  "sourceName": "contracts/GLXSwapV2Router.sol",
  "abi": [
    {
      "inputs": [
        {
          "internalType": "address",
          "name": "factoryAddress",
          "type": "address"
        },
        {
          "internalType": "address",
          "name": "_WETH",
          "type": "address"
        }
      ],
      "stateMutability": "nonpayable",
      "type": "constructor"
    },
    {
      "inputs": [],
      "name": "ExcessiveInputAmount",
      "type": "error"
    },
    {
      "inputs": [],
      "name": "InsufficientAAmount",
      "type": "error"
    },
    {
      "inputs": [],
      "name": "InsufficientBAmount",
      "type": "error"
    },
    {
      "inputs": [],
      "name": "InsufficientOutputAmount",
      "type": "error"
    },
    {
      "inputs": [],
      "name": "NOtETHINCONTRACT",
      "type": "error"
    },
    {
      "inputs": [],
      "name": "SafeTransferETHFailed",
      "type": "error"
    },
    {
      "inputs": [],
      "name": "SafeTransferFailed",
      "type": "error"
    },
    {
      "inputs": [],
      "name": "SafeTransferFromFailed",
      "type": "error"
    },
    {
      "stateMutability": "payable",
      "type": "fallback"
    },
    {
      "inputs": [],
      "name": "WETHAddrees",
      "outputs": [
        {
          "internalType": "address",
          "name": "",
          "type": "address"
        }
      ],
      "stateMutability": "view",
      "type": "function"
    },
    {
      "inputs": [
        {
          "internalType": "address",
          "name": "tokenA",
          "type": "address"
        },
        {
          "internalType": "address",
          "name": "tokenB",
          "type": "address"
        },
        {
          "internalType": "uint256",
          "name": "amountADesired",
          "type": "uint256"
        },
        {
          "internalType": "uint256",
          "name": "amountBDesired",
          "type": "uint256"
        },
        {
          "internalType": "uint256",
          "name": "amountAMin",
          "type": "uint256"
        },
        {
          "internalType": "uint256",
          "name": "amountBMin",
          "type": "uint256"
        },
        {
          "internalType": "address",
          "name": "to",
          "type": "address"
        }
      ],
      "name": "addLiquidity",
      "outputs": [
        {
          "internalType": "uint256",
          "name": "amountA",
          "type": "uint256"
        },
        {
          "internalType": "uint256",
          "name": "amountB",
          "type": "uint256"
        },
        {
          "internalType": "uint256",
          "name": "liquidity",
          "type": "uint256"
        }
      ],
      "stateMutability": "nonpayable",
      "type": "function"
    },
    {
      "inputs": [
        {
          "internalType": "address",
          "name": "token",
          "type": "address"
        },
        {
          "internalType": "address",
          "name": "wa",
          "type": "address"
        },
        {
          "internalType": "uint256",
          "name": "amountTokenDesired",
          "type": "uint256"
        },
        {
          "internalType": "uint256",
          "name": "amountTokenMin",
          "type": "uint256"
        },
        {
          "internalType": "uint256",
          "name": "amountETHMin",
          "type": "uint256"
        },
        {
          "internalType": "address",
          "name": "to",
          "type": "address"
        }
      ],
      "name": "addLiquidityETH",
      "outputs": [
        {
          "internalType": "uint256",
          "name": "amountToken",
          "type": "uint256"
        },
        {
          "internalType": "uint256",
          "name": "amountETH",
          "type": "uint256"
        },
        {
          "internalType": "uint256",
          "name": "liquidity",
          "type": "uint256"
        }
      ],
      "stateMutability": "payable",
      "type": "function"
    },
    {
      "inputs": [
        {
          "internalType": "uint256",
          "name": "amountOut",
          "type": "uint256"
        },
        {
          "internalType": "uint256",
          "name": "reserveIn",
          "type": "uint256"
        },
        {
          "internalType": "uint256",
          "name": "reserveOut",
          "type": "uint256"
        }
      ],
      "name": "getAmountIn",
      "outputs": [
        {
          "internalType": "uint256",
          "name": "amountIn",
          "type": "uint256"
        }
      ],
      "stateMutability": "nonpayable",
      "type": "function"
    },
    {
      "inputs": [
        {
          "internalType": "uint256",
          "name": "amountIn",
          "type": "uint256"
        },
        {
          "internalType": "uint256",
          "name": "reserveIn",
          "type": "uint256"
        },
        {
          "internalType": "uint256",
          "name": "reserveOut",
          "type": "uint256"
        }
      ],
      "name": "getAmountOut",
      "outputs": [
        {
          "internalType": "uint256",
          "name": "amountOut",
          "type": "uint256"
        }
      ],
      "stateMutability": "nonpayable",
      "type": "function"
    },
    {
      "inputs": [
        {
          "internalType": "uint256",
          "name": "amountOut",
          "type": "uint256"
        },
        {
          "internalType": "address[]",
          "name": "path",
          "type": "address[]"
        }
      ],
      "name": "getAmountsIn",
      "outputs": [
        {
          "internalType": "uint256[]",
          "name": "amounts",
          "type": "uint256[]"
        }
      ],
      "stateMutability": "nonpayable",
      "type": "function"
    },
    {
      "inputs": [
        {
          "internalType": "uint256",
          "name": "amountIn",
          "type": "uint256"
        },
        {
          "internalType": "address[]",
          "name": "path",
          "type": "address[]"
        }
      ],
      "name": "getAmountsOut",
      "outputs": [
        {
          "internalType": "uint256[]",
          "name": "amounts",
          "type": "uint256[]"
        }
      ],
      "stateMutability": "nonpayable",
      "type": "function"
    },
    {
      "inputs": [
        {
          "internalType": "uint256",
          "name": "amountA",
          "type": "uint256"
        },
        {
          "internalType": "uint256",
          "name": "reserveA",
          "type": "uint256"
        },
        {
          "internalType": "uint256",
          "name": "reserveB",
          "type": "uint256"
        }
      ],
      "name": "quote",
      "outputs": [
        {
          "internalType": "uint256",
          "name": "amountB",
          "type": "uint256"
        }
      ],
      "stateMutability": "nonpayable",
      "type": "function"
    },
    {
      "inputs": [
        {
          "internalType": "address",
          "name": "tokenA",
          "type": "address"
        },
        {
          "internalType": "address",
          "name": "tokenB",
          "type": "address"
        },
        {
          "internalType": "uint256",
          "name": "liquidity",
          "type": "uint256"
        },
        {
          "internalType": "uint256",
          "name": "amountAMin",
          "type": "uint256"
        },
        {
          "internalType": "uint256",
          "name": "amountBMin",
          "type": "uint256"
        },
        {
          "internalType": "address",
          "name": "to",
          "type": "address"
        }
      ],
      "name": "removeLiquidity",
      "outputs": [
        {
          "internalType": "uint256",
          "name": "amountA",
          "type": "uint256"
        },
        {
          "internalType": "uint256",
          "name": "amountB",
          "type": "uint256"
        }
      ],
      "stateMutability": "nonpayable",
      "type": "function"
    },
    {
      "inputs": [
        {
          "internalType": "address",
          "name": "token",
          "type": "address"
        },
        {
          "internalType": "address",
          "name": "wa",
          "type": "address"
        },
        {
          "internalType": "uint256",
          "name": "liquidity",
          "type": "uint256"
        },
        {
          "internalType": "uint256",
          "name": "amountTokenMin",
          "type": "uint256"
        },
        {
          "internalType": "uint256",
          "name": "amountETHMin",
          "type": "uint256"
        },
        {
          "internalType": "address",
          "name": "to",
          "type": "address"
        }
      ],
      "name": "removeLiquidityETH",
      "outputs": [
        {
          "internalType": "uint256",
          "name": "amountToken",
          "type": "uint256"
        },
        {
          "internalType": "uint256",
          "name": "amountETH",
          "type": "uint256"
        }
      ],
      "stateMutability": "nonpayable",
      "type": "function"
    },
    {
      "inputs": [
        {
          "internalType": "uint256",
          "name": "amountOut",
          "type": "uint256"
        },
        {
          "internalType": "address[]",
          "name": "path",
          "type": "address[]"
        },
        {
          "internalType": "address",
          "name": "to",
          "type": "address"
        }
      ],
      "name": "swapETHForExactTokens",
      "outputs": [
        {
          "internalType": "uint256[]",
          "name": "amounts",
          "type": "uint256[]"
        }
      ],
      "stateMutability": "payable",
      "type": "function"
    },
    {
      "inputs": [
        {
          "internalType": "uint256",
          "name": "amountOutMin",
          "type": "uint256"
        },
        {
          "internalType": "address[]",
          "name": "path",
          "type": "address[]"
        },
        {
          "internalType": "address",
          "name": "to",
          "type": "address"
        }
      ],
      "name": "swapExactETHForTokens",
      "outputs": [
        {
          "internalType": "uint256[]",
          "name": "amounts",
          "type": "uint256[]"
        }
      ],
      "stateMutability": "payable",
      "type": "function"
    },
    {
      "inputs": [
        {
          "internalType": "uint256",
          "name": "amountIn",
          "type": "uint256"
        },
        {
          "internalType": "uint256",
          "name": "amountOutMin",
          "type": "uint256"
        },
        {
          "internalType": "address[]",
          "name": "path",
          "type": "address[]"
        },
        {
          "internalType": "address",
          "name": "to",
          "type": "address"
        }
      ],
      "name": "swapExactTokensForETH",
      "outputs": [
        {
          "internalType": "uint256[]",
          "name": "amounts",
          "type": "uint256[]"
        }
      ],
      "stateMutability": "payable",
      "type": "function"
    },
    {
      "inputs": [
        {
          "internalType": "uint256",
          "name": "amountIn",
          "type": "uint256"
        },
        {
          "internalType": "uint256",
          "name": "amountOutMin",
          "type": "uint256"
        },
        {
          "internalType": "address[]",
          "name": "path",
          "type": "address[]"
        },
        {
          "internalType": "address",
          "name": "to",
          "type": "address"
        }
      ],
      "name": "swapExactTokensForTokens",
      "outputs": [
        {
          "internalType": "uint256[]",
          "name": "amounts",
          "type": "uint256[]"
        }
      ],
      "stateMutability": "nonpayable",
      "type": "function"
    },
    {
      "inputs": [
        {
          "internalType": "uint256",
          "name": "amountOut",
          "type": "uint256"
        },
        {
          "internalType": "uint256",
          "name": "amountInMax",
          "type": "uint256"
        },
        {
          "internalType": "address[]",
          "name": "path",
          "type": "address[]"
        },
        {
          "internalType": "address",
          "name": "to",
          "type": "address"
        }
      ],
      "name": "swapTokensForExactETH",
      "outputs": [
        {
          "internalType": "uint256[]",
          "name": "amounts",
          "type": "uint256[]"
        }
      ],
      "stateMutability": "payable",
      "type": "function"
    },
    {
      "inputs": [
        {
          "internalType": "uint256",
          "name": "amountOut",
          "type": "uint256"
        },
        {
          "internalType": "uint256",
          "name": "amountInMax",
          "type": "uint256"
        },
        {
          "internalType": "address[]",
          "name": "path",
          "type": "address[]"
        },
        {
          "internalType": "address",
          "name": "to",
          "type": "address"
        }
      ],
      "name": "swapTokensForExactTokens",
      "outputs": [
        {
          "internalType": "uint256[]",
          "name": "amounts",
          "type": "uint256[]"
        }
      ],
      "stateMutability": "nonpayable",
      "type": "function"
    },
    {
      "stateMutability": "payable",
      "type": "receive"
    }
  ],
  "bytecode": "0x60806040523480156200001157600080fd5b5060405162004d3f38038062004d3f833981016040819052620000349162000083565b600080546001600160a01b039384166001600160a01b03199182161790915560028054929093169116179055620000bb565b80516001600160a01b03811681146200007e57600080fd5b919050565b600080604083850312156200009757600080fd5b620000a28362000066565b9150620000b26020840162000066565b90509250929050565b614c7480620000cb6000396000f3fe608060405260043610620000ff5760003560e01c8063472b43f3116200008f578063ca3d6539116200005d578063ca3d653914620002c5578063d06ca61f1462000306578063dd943e06146200032b578063ee048076146200034257005b8063472b43f3146200023157806385f8c2591462000256578063ad615dec146200027b578063c0e3ee6b14620002a057005b80631f00ca7411620000cd5780631f00ca7414620001b9578063363db5c614620001de5780633e8877ed14620001f557806342712a67146200020c57005b8063054d50d4146200010957806310086982146200014157806312c6442f14620001675780631c943850146200017e57005b366200010757005b005b3480156200011657600080fd5b506200012e62000128366004620020c0565b6200037d565b6040519081526020015b60405180910390f35b62000158620001523660046200214e565b6200040e565b604051620001389190620021b3565b62000158620001783660046200214e565b62000789565b3480156200018b57600080fd5b50620001a36200019d366004620021f9565b62000a63565b6040805192835260208301919091520162000138565b348015620001c657600080fd5b5062000158620001d8366004620022d8565b62000b44565b62000158620001ef3660046200238f565b62000be0565b62000158620002063660046200238f565b62000ef3565b3480156200021957600080fd5b50620001586200022b3660046200238f565b62001037565b3480156200023e57600080fd5b5062000158620002503660046200238f565b62001178565b3480156200026357600080fd5b506200012e62000275366004620020c0565b6200125e565b3480156200028857600080fd5b506200012e6200029a366004620020c0565b620012a8565b348015620002ad57600080fd5b50620001a3620002bf366004620021f9565b620012f2565b348015620002d257600080fd5b50620002ea620002e436600462002400565b6200148d565b6040805193845260208401929092529082015260600162000138565b3480156200031357600080fd5b506200015862000325366004620022d8565b62001560565b620002ea6200033c366004620021f9565b620015ad565b3480156200034f57600080fd5b5060025462000364906001600160a01b031681565b6040516001600160a01b03909116815260200162000138565b604051630153543560e21b815260048101849052602481018390526044810182905260009073__$a9dcfc41efb87c1a3df1976287a4ed544e$__9063054d50d4906064015b602060405180830381865af4158015620003e0573d6000803e3d6000fd5b505050506040513d601f19601f8201168201806040525081019062000406919062002479565b949350505050565b6002546060906001600160a01b0316848460008162000431576200043162002493565b9050602002016020810190620004489190620024a9565b6001600160a01b0316146200047a5760405162461bcd60e51b81526004016200047190620024c9565b60405180910390fd5b600054604051630c90945960e11b815273__$a9dcfc41efb87c1a3df1976287a4ed544e$__9163192128b291620004c4916001600160a01b03169089908990899060040162002500565b600060405180830381865af4158015620004e2573d6000803e3d6000fd5b505050506040513d6000823e601f3d908101601f191682016040526200050c919081019062002567565b9050348160008151811062000525576200052562002493565b602002602001015111156200054e5760405162461bcd60e51b8152600401620004719062002601565b60025481516001600160a01b039091169063d0e30db090839060009062000579576200057962002493565b60200260200101516040518263ffffffff1660e01b81526004016000604051808303818588803b158015620005ad57600080fd5b505af1158015620005c2573d6000803e3d6000fd5b5050600254600080546001600160a01b03928316955063a9059cbb9450620006479350909116908890889081620005fd57620005fd62002493565b9050602002016020810190620006149190620024a9565b888860018181106200062a576200062a62002493565b9050602002016020810190620006419190620024a9565b62001767565b836000815181106200065d576200065d62002493565b60200260200101516040518363ffffffff1660e01b8152600401620006979291906001600160a01b03929092168252602082015260400190565b6020604051808303816000875af1158015620006b7573d6000803e3d6000fd5b505050506040513d601f19601f82011682018060405250810190620006dd919062002648565b620006ec57620006ec6200266c565b6200072d8185858080602002602001604051908101604052809392919081815260200183836020028082843760009201919091525087925062001884915050565b8060008151811062000743576200074362002493565b602002602001015134111562000406576200040633826000815181106200076e576200076e62002493565b60200260200101513462000783919062002698565b62001a75565b6002546060906001600160a01b03168484600081620007ac57620007ac62002493565b9050602002016020810190620007c39190620024a9565b6001600160a01b031614620007ec5760405162461bcd60e51b81526004016200047190620024c9565b600054604051635dbdce3b60e11b815273__$a9dcfc41efb87c1a3df1976287a4ed544e$__9163bb7b9c769162000836916001600160a01b03169034908990899060040162002500565b600060405180830381865af415801562000854573d6000803e3d6000fd5b505050506040513d6000823e601f3d908101601f191682016040526200087e919081019062002567565b905084816001835162000892919062002698565b81518110620008a557620008a562002493565b60200260200101511015620008ce5760405162461bcd60e51b81526004016200047190620026b2565b60025481516001600160a01b039091169063d0e30db0908390600090620008f957620008f962002493565b60200260200101516040518263ffffffff1660e01b81526004016000604051808303818588803b1580156200092d57600080fd5b505af115801562000942573d6000803e3d6000fd5b5050600254600080546001600160a01b03928316955063a9059cbb94506200097d9350909116908890889081620005fd57620005fd62002493565b8360008151811062000993576200099362002493565b60200260200101516040518363ffffffff1660e01b8152600401620009cd9291906001600160a01b03929092168252602082015260400190565b6020604051808303816000875af1158015620009ed573d6000803e3d6000fd5b505050506040513d601f19601f8201168201806040525081019062000a13919062002648565b62000a225762000a226200266c565b620004068185858080602002602001604051908101604052809392919081815260200183836020028082843760009201919091525087925062001884915050565b60008062000a76888888888830620012f2565b909250905062000a8888848462001b0d565b604051632e1a7d4d60e01b8152600481018290526001600160a01b03881690632e1a7d4d90602401600060405180830381600087803b15801562000acb57600080fd5b505af115801562000ae0573d6000803e3d6000fd5b5050505080471462000b2d5760405162461bcd60e51b81526020600482015260156024820152740c4c2d8c2dcc6cae640c8de40dcdee840dac2e8c6d605b1b604482015260640162000471565b62000b39838262001a75565b965096945050505050565b600054604051630c90945960e11b815260609173__$a9dcfc41efb87c1a3df1976287a4ed544e$__9163192128b29162000b91916001600160a01b039091169087908790600401620026fd565b600060405180830381865af415801562000baf573d6000803e3d6000fd5b505050506040513d6000823e601f3d908101601f1916820160405262000bd9919081019062002567565b9392505050565b6002546060906001600160a01b0316848462000bfe60018262002698565b81811062000c105762000c1062002493565b905060200201602081019062000c279190620024a9565b6001600160a01b03161462000c505760405162461bcd60e51b81526004016200047190620024c9565b600054604051635dbdce3b60e11b815273__$a9dcfc41efb87c1a3df1976287a4ed544e$__9163bb7b9c769162000c9a916001600160a01b0316908a908990899060040162002500565b600060405180830381865af415801562000cb8573d6000803e3d6000fd5b505050506040513d6000823e601f3d908101601f1916820160405262000ce2919081019062002567565b905084816001835162000cf6919062002698565b8151811062000d095762000d0962002493565b6020026020010151101562000d325760405162461bcd60e51b81526004016200047190620026b2565b62000ddd8484600081811062000d4c5762000d4c62002493565b905060200201602081019062000d639190620024a9565b60008054339162000db9916001600160a01b031690899089908162000d8c5762000d8c62002493565b905060200201602081019062000da39190620024a9565b898960018181106200062a576200062a62002493565b8460008151811062000dcf5762000dcf62002493565b602002602001015162001c05565b62000e1e8185858080602002602001604051908101604052809392919081815260200183836020028082843760009201919091525030925062001884915050565b60025481516001600160a01b0390911690632e1a7d4d90839062000e459060019062002698565b8151811062000e585762000e5862002493565b60200260200101516040518263ffffffff1660e01b815260040162000e7f91815260200190565b600060405180830381600087803b15801562000e9a57600080fd5b505af115801562000eaf573d6000803e3d6000fd5b5050505062000eea82826001845162000ec9919062002698565b8151811062000edc5762000edc62002493565b602002602001015162001a75565b95945050505050565b6002546060906001600160a01b0316848462000f1160018262002698565b81811062000f235762000f2362002493565b905060200201602081019062000f3a9190620024a9565b6001600160a01b03161462000f635760405162461bcd60e51b81526004016200047190620024c9565b600054604051630c90945960e11b815273__$a9dcfc41efb87c1a3df1976287a4ed544e$__9163192128b29162000fad916001600160a01b0316908a908990899060040162002500565b600060405180830381865af415801562000fcb573d6000803e3d6000fd5b505050506040513d6000823e601f3d908101601f1916820160405262000ff5919081019062002567565b905084816000815181106200100e576200100e62002493565b6020026020010151111562000d325760405162461bcd60e51b8152600401620004719062002601565b600054604051630c90945960e11b815260609173__$a9dcfc41efb87c1a3df1976287a4ed544e$__9163192128b29162001086916001600160a01b03909116908a908990899060040162002500565b600060405180830381865af4158015620010a4573d6000803e3d6000fd5b505050506040513d6000823e601f3d908101601f19168201604052620010ce919081019062002567565b9050848160018351620010e2919062002698565b81518110620010f557620010f562002493565b602002602001015111156200111d5760405163e1b0da4f60e01b815260040160405180910390fd5b620011378484600081811062000d4c5762000d4c62002493565b62000eea8185858080602002602001604051908101604052809392919081815260200183836020028082843760009201919091525087925062001884915050565b600054604051635dbdce3b60e11b815260609173__$a9dcfc41efb87c1a3df1976287a4ed544e$__9163bb7b9c7691620011c7916001600160a01b03909116908a908990899060040162002500565b600060405180830381865af4158015620011e5573d6000803e3d6000fd5b505050506040513d6000823e601f3d908101601f191682016040526200120f919081019062002567565b905084816001835162001223919062002698565b8151811062001236576200123662002493565b602002602001015110156200111d576040516342301c2360e01b815260040160405180910390fd5b6040516385f8c25960e01b815260048101849052602481018390526044810182905260009073__$a9dcfc41efb87c1a3df1976287a4ed544e$__906385f8c25990606401620003c2565b604051632b58577b60e21b815260048101849052602481018390526044810182905260009073__$a9dcfc41efb87c1a3df1976287a4ed544e$__9063ad615dec90606401620003c2565b600080548190819062001310906001600160a01b03168a8a62001767565b6040516323b872dd60e01b81523360048201526001600160a01b03821660248201819052604482018a90529192506323b872dd906064016020604051808303816000875af115801562001367573d6000803e3d6000fd5b505050506040513d601f19601f820116820180604052508101906200138d919062002648565b5060405163226bf2d160e21b81526001600160a01b0385811660048301528216906389afcb449060240160408051808303816000875af1158015620013d6573d6000803e3d6000fd5b505050506040513d601f19601f82011682018060405250810190620013fc919062002762565b909350915060006200140f8a8a62001d06565b509050806001600160a01b03168a6001600160a01b0316146200143457838362001437565b83835b9094509250868410156200145e57604051638dc525d160e01b815260040160405180910390fd5b85841015620014805760405163ef71d09160e01b815260040160405180910390fd5b5050965096945050505050565b6000806000620014a28a8a8a8a8a8a62001d3a565b6000805492955090935090620014c3906001600160a01b03168c8c62001767565b9050620014d38b33838762001c05565b620014e18a33838662001c05565b6040516335313c2160e11b81526001600160a01b038681166004830152821690636a627842906024016020604051808303816000875af11580156200152a573d6000803e3d6000fd5b505050506040513d601f19601f8201168201806040525081019062001550919062002479565b9150509750975097945050505050565b600054604051635dbdce3b60e11b815260609173__$a9dcfc41efb87c1a3df1976287a4ed544e$__9163bb7b9c769162000b91916001600160a01b039091169087908790600401620026fd565b6000806000620015c2898989348a8a62001d3a565b6000805492955090935090620015e3906001600160a01b03168b8b62001767565b9050620015f38a33838762001c05565b886001600160a01b031663d0e30db0846040518263ffffffff1660e01b81526004016000604051808303818588803b1580156200162f57600080fd5b505af115801562001644573d6000803e3d6000fd5b505060405163a9059cbb60e01b81526001600160a01b038581166004830152602482018890528d16935063a9059cbb925060440190506020604051808303816000875af11580156200169a573d6000803e3d6000fd5b505050506040513d601f19601f82011682018060405250810190620016c0919062002648565b620016cf57620016cf6200266c565b6040516335313c2160e11b81526001600160a01b038681166004830152821690636a627842906024016020604051808303816000875af115801562001718573d6000803e3d6000fd5b505050506040513d601f19601f820116820180604052508101906200173e919062002479565b9150823411156200175a576200175a3362000783853462002698565b5096509650969350505050565b600080600062001778858562001d06565b915091506000604051806020016200179090620020b2565b601f1982820381018352601f909101166040819052620017b4919060200162002787565b60405160208183030381529060405280519060200120905086838360405160200162001804929190606092831b6bffffffffffffffffffffffff1990811682529190921b16601482015260280190565b604051602081830303815290604052805190602001208260405160200162001861939291906001600160f81b0319815260609390931b6bffffffffffffffffffffffff191660018401526015830191909152603582015260550190565b60408051601f198184030181529190528051602090910120979650505050505050565b60005b6001835162001897919062002698565b81101562001a6f57600080848381518110620018b757620018b762002493565b602002602001015185846001620018cf9190620027c5565b81518110620018e257620018e262002493565b6020026020010151915091506000620018fc838362001d06565b5090506000876200190f866001620027c5565b8151811062001922576200192262002493565b60200260200101519050600080836001600160a01b0316866001600160a01b031614620019525782600062001956565b6000835b91509150600060028a516200196c919062002698565b88106200197a5788620019bb565b600054620019bb906001600160a01b0316878c6200199a8c6002620027c5565b81518110620019ad57620019ad62002493565b602002602001015162001767565b600054909150620019d7906001600160a01b0316888862001767565b60405163022c0d9f60e01b815260048101859052602481018490526001600160a01b0383811660448301526080606483015260006084830152919091169063022c0d9f9060a401600060405180830381600087803b15801562001a3957600080fd5b505af115801562001a4e573d6000803e3d6000fd5b5050505050505050505050808062001a6690620027e0565b91505062001887565b50505050565b604080516000808252602082019092526001600160a01b03841690839060405162001aa1919062002787565b60006040518083038185875af1925050503d806000811462001ae0576040519150601f19603f3d011682016040523d82523d6000602084013e62001ae5565b606091505b505090508062001b085760405163067ecc5f60e01b815260040160405180910390fd5b505050565b6040516001600160a01b03838116602483015260448201839052600091829186169060640160408051601f198184030181529181526020820180516001600160e01b031663a9059cbb60e01b1790525162001b69919062002787565b6000604051808303816000865af19150503d806000811462001ba8576040519150601f19603f3d011682016040523d82523d6000602084013e62001bad565b606091505b509150915081158062001bdf575080511580159062001bdf57508080602001905181019062001bdd919062002648565b155b1562001bfe5760405163fb7f507960e01b815260040160405180910390fd5b5050505050565b6040516001600160a01b038481166024830152838116604483015260648201839052600091829187169060840160408051601f198184030181529181526020820180516001600160e01b03166323b872dd60e01b1790525162001c69919062002787565b6000604051808303816000865af19150503d806000811462001ca8576040519150601f19603f3d011682016040523d82523d6000602084013e62001cad565b606091505b509150915081158062001cdf575080511580159062001cdf57508080602001905181019062001cdd919062002648565b155b1562001cfe5760405163f405907160e01b815260040160405180910390fd5b505050505050565b600080826001600160a01b0316846001600160a01b03161062001d2b57828462001d2e565b83835b915091505b9250929050565b600080546040516334a2a5c360e11b81526001600160a01b0389811660048301528881166024830152839283929116906369454b8690604401602060405180830381865afa15801562001d91573d6000803e3d6000fd5b505050506040513d601f19601f8201168201806040525081019062001db79190620027fe565b6001600160a01b0316141562001e44576000546040516364e329cb60e11b81526001600160a01b038a8116600483015289811660248301529091169063c9c65396906044016020604051808303816000875af115801562001e1c573d6000803e3d6000fd5b505050506040513d601f19601f8201168201806040525081019062001e429190620027fe565b505b62001e5488888888888862001e63565b90999098509650505050505050565b60008054604051633274946160e01b81526001600160a01b0391821660048201528882166024820152908716604482015281908190819073__$a9dcfc41efb87c1a3df1976287a4ed544e$__906332749461906064016040805180830381865af415801562001ed6573d6000803e3d6000fd5b505050506040513d601f19601f8201168201806040525081019062001efc919062002762565b9150915081600014801562001f0f575080155b1562001f215787935086925062001480565b604051632b58577b60e21b815260048101899052602481018390526044810182905260009073__$a9dcfc41efb87c1a3df1976287a4ed544e$__9063ad615dec90606401602060405180830381865af415801562001f83573d6000803e3d6000fd5b505050506040513d601f19601f8201168201806040525081019062001fa9919062002479565b905087811162001fe05785811162001fd45760405163ef71d09160e01b815260040160405180910390fd5b889450925082620020a4565b604051632b58577b60e21b815260048101899052602481018390526044810184905260009073__$a9dcfc41efb87c1a3df1976287a4ed544e$__9063ad615dec90606401602060405180830381865af415801562002042573d6000803e3d6000fd5b505050506040513d601f19601f8201168201806040525081019062002068919062002479565b9050898111156200207d576200207d6200266c565b8781116200209e57604051638dc525d160e01b815260040160405180910390fd5b94508793505b505050965096945050505050565b612420806200281f83390190565b600080600060608486031215620020d657600080fd5b505081359360208301359350604090920135919050565b60008083601f8401126200210057600080fd5b50813567ffffffffffffffff8111156200211957600080fd5b6020830191508360208260051b850101111562001d3357600080fd5b6001600160a01b03811681146200214b57600080fd5b50565b600080600080606085870312156200216557600080fd5b84359350602085013567ffffffffffffffff8111156200218457600080fd5b6200219287828801620020ed565b9094509250506040850135620021a88162002135565b939692955090935050565b6020808252825182820181905260009190848201906040850190845b81811015620021ed57835183529284019291840191600101620021cf565b50909695505050505050565b60008060008060008060c087890312156200221357600080fd5b8635620022208162002135565b95506020870135620022328162002135565b945060408701359350606087013592506080870135915060a0870135620022598162002135565b809150509295509295509295565b634e487b7160e01b600052604160045260246000fd5b604051601f8201601f1916810167ffffffffffffffff81118282101715620022a957620022a962002267565b604052919050565b600067ffffffffffffffff821115620022ce57620022ce62002267565b5060051b60200190565b60008060408385031215620022ec57600080fd5b8235915060208084013567ffffffffffffffff8111156200230c57600080fd5b8401601f810186136200231e57600080fd5b8035620023356200232f82620022b1565b6200227d565b81815260059190911b820183019083810190888311156200235557600080fd5b928401925b8284101562002380578335620023708162002135565b825292840192908401906200235a565b80955050505050509250929050565b600080600080600060808688031215620023a857600080fd5b8535945060208601359350604086013567ffffffffffffffff811115620023ce57600080fd5b620023dc88828901620020ed565b9094509250506060860135620023f28162002135565b809150509295509295909350565b600080600080600080600060e0888a0312156200241c57600080fd5b8735620024298162002135565b965060208801356200243b8162002135565b955060408801359450606088013593506080880135925060a0880135915060c0880135620024698162002135565b8091505092959891949750929550565b6000602082840312156200248c57600080fd5b5051919050565b634e487b7160e01b600052603260045260246000fd5b600060208284031215620024bc57600080fd5b813562000bd98162002135565b6020808252601d908201527f474c58537761705632526f757465723a20494e56414c49445f50415448000000604082015260600190565b6001600160a01b03858116825260208083018690526060604084018190528301849052600091859160808501845b8781101562002559578435620025448162002135565b8416825293820193908201906001016200252e565b509998505050505050505050565b600060208083850312156200257b57600080fd5b825167ffffffffffffffff8111156200259357600080fd5b8301601f81018513620025a557600080fd5b8051620025b66200232f82620022b1565b81815260059190911b82018301908381019087831115620025d657600080fd5b928401925b82841015620025f657835182529284019290840190620025db565b979650505050505050565b60208082526027908201527f474c58537761705632526f757465723a204558434553534956455f494e50555460408201526617d05353d5539560ca1b606082015260800190565b6000602082840312156200265b57600080fd5b8151801515811462000bd957600080fd5b634e487b7160e01b600052600160045260246000fd5b634e487b7160e01b600052601160045260246000fd5b600082821015620026ad57620026ad62002682565b500390565b6020808252602b908201527f474c58537761705632526f757465723a20494e53554646494349454e545f4f5560408201526a1514155517d05353d5539560aa1b606082015260800190565b6001600160a01b038481168252602080830185905260606040840181905284519084018190526000928583019290916080860190855b818110156200275357855185168352948301949183019160010162002733565b50909998505050505050505050565b600080604083850312156200277657600080fd5b505080516020909101519092909150565b6000825160005b81811015620027aa57602081860181015185830152016200278e565b81811115620027ba576000828501525b509190910192915050565b60008219821115620027db57620027db62002682565b500190565b6000600019821415620027f757620027f762002682565b5060010190565b6000602082840312156200281157600080fd5b815162000bd9816200213556fe60e06040523480156200001157600080fd5b50604080518082018252600881526723a62c102830b4b960c11b60208083019182528351808501909452600484526323a62c1960e11b9084015281519192916012916200006291600091906200015d565b508151620000789060019060208501906200015d565b5060ff81166080524660a0526200008e620000ac565b60c0525050600680546001600160a01b0319163317905550620002e4565b60007f8b73c3c69bb8fe3d512ecc4cf759cc79239f7b179b0ffacaa9a75d522b39400f6000604051620000e0919062000240565b60408051918290038220828201825260018352603160f81b6020938401528151928301939093528101919091527fc89efdaa54c0f20c7adf612882df0950f5a951637e0307cdcb4c672f298b8bc660608201524660808201523060a082015260c00160405160208183030381529060405280519060200120905090565b8280546200016b9062000203565b90600052602060002090601f0160209004810192826200018f5760008555620001da565b82601f10620001aa57805160ff1916838001178555620001da565b82800160010185558215620001da579182015b82811115620001da578251825591602001919060010190620001bd565b50620001e8929150620001ec565b5090565b5b80821115620001e85760008155600101620001ed565b600181811c908216806200021857607f821691505b602082108114156200023a57634e487b7160e01b600052602260045260246000fd5b50919050565b600080835481600182811c9150808316806200025d57607f831692505b60208084108214156200027e57634e487b7160e01b86526022600452602486fd5b818015620002955760018114620002a757620002d6565b60ff19861689528489019650620002d6565b60008a81526020902060005b86811015620002ce5781548b820152908501908301620002b3565b505084890196505b509498975050505050505050565b60805160a05160c05161210c620003146000396000610a5901526000610a240152600061029e015261210c6000f3fe608060405234801561001057600080fd5b506004361061018e5760003560e01c80636a627842116100de578063a9059cbb11610097578063d21220a711610071578063d21220a7146103c4578063d505accf146103d7578063dd62ed3e146103ea578063fff6cae91461041557600080fd5b8063a9059cbb1461038b578063bc25cf771461039e578063c45a0155146103b157600080fd5b80636a627842146102ff57806370a08231146103125780637464fc3d146103325780637ecebe001461033b57806389afcb441461035b57806395d89b411461038357600080fd5b806323b872dd1161014b5780633644e515116101255780633644e515146102d2578063485cc955146102da5780635909c0d5146102ed5780635a3d5493146102f657600080fd5b806323b872dd1461025f57806330adf81f14610272578063313ce5671461029957600080fd5b8063022c0d9f1461019357806306fdde03146101a85780630902f1ac146101c6578063095ea7b3146101fa5780630dfe16811461021d57806318160ddd14610248575b600080fd5b6101a66101a1366004611c0f565b61041d565b005b6101b0610814565b6040516101bd9190611cd5565b60405180910390f35b6101ce6108a2565b604080516001600160701b03948516815293909216602084015263ffffffff16908201526060016101bd565b61020d610208366004611d08565b6108cc565b60405190151581526020016101bd565b600754610230906001600160a01b031681565b6040516001600160a01b0390911681526020016101bd565b61025160025481565b6040519081526020016101bd565b61020d61026d366004611d34565b610938565b6102517f6e71edae12b1b97f4d1f60370fef10105fa2faae0126114a169c64845d6126c981565b6102c07f000000000000000000000000000000000000000000000000000000000000000081565b60405160ff90911681526020016101bd565b610251610a20565b6101a66102e8366004611d75565b610a7b565b610251600a5481565b610251600b5481565b61025161030d366004611dae565b610b69565b610251610320366004611dae565b60036020526000908152604090205481565b610251600c5481565b610251610349366004611dae565b60056020526000908152604090205481565b61036e610369366004611dae565b610dd9565b604080519283526020830191909152016101bd565b6101b0611123565b61020d610399366004611d08565b611130565b6101a66103ac366004611dae565b611196565b600654610230906001600160a01b031681565b600854610230906001600160a01b031681565b6101a66103e5366004611dcb565b6112a4565b6102516103f8366004611d75565b600460209081526000928352604080842090915290825290205481565b6101a6611504565b600d5460ff161561042d57600080fd5b600d805460ff1916600117905584158015610446575083155b15610464576040516342301c2360e01b815260040160405180910390fd5b60008061046f6108a2565b5091509150816001600160701b03168711806104935750806001600160701b031686115b156104b15760405163bb55fd2760e01b815260040160405180910390fd5b60008088156104d1576007546104d1906001600160a01b0316888b611624565b87156104ee576008546104ee906001600160a01b0316888a611624565b841561055b5760405163156ce6bd60e01b81526001600160a01b0388169063156ce6bd906105289033908d908d908c908c90600401611e42565b600060405180830381600087803b15801561054257600080fd5b505af1158015610556573d6000803e3d6000fd5b505050505b6007546040516370a0823160e01b81523060048201526001600160a01b03909116906370a0823190602401602060405180830381865afa1580156105a3573d6000803e3d6000fd5b505050506040513d601f19601f820116820180604052508101906105c79190611e8e565b6008546040516370a0823160e01b81523060048201529193506001600160a01b0316906370a0823190602401602060405180830381865afa158015610610573d6000803e3d6000fd5b505050506040513d601f19601f820116820180604052508101906106349190611e8e565b600954909150600090610651908b906001600160701b0316611ebd565b831161065e57600061067f565b600954610675908b906001600160701b0316611ebd565b61067f9084611ebd565b6009549091506000906106a3908b90600160701b90046001600160701b0316611ebd565b83116106b05760006106d8565b6009546106ce908b90600160701b90046001600160701b0316611ebd565b6106d89084611ebd565b9050811580156106e6575080155b156107045760405163098fb56160e01b815260040160405180910390fd5b6000610711836003611ed4565b61071d866103e8611ed4565b6107279190611ebd565b90506000610736836003611ed4565b610742866103e8611ed4565b61074c9190611ebd565b90506107646001600160701b03808916908a16611ed4565b61077190620f4240611ed4565b61077b8284611ed4565b101561079a57604051632f62f0d960e21b815260040160405180910390fd5b50506107a884848888611713565b60408051838152602081018390529081018c9052606081018b90526001600160a01b038a169033907fd78ad95fa46c994b6551d0da85fc275fe613ce37657fb8d5e3d130840159d8229060800160405180910390a35050600d805460ff19169055505050505050505050565b6000805461082190611ef3565b80601f016020809104026020016040519081016040528092919081815260200182805461084d90611ef3565b801561089a5780601f1061086f5761010080835404028352916020019161089a565b820191906000526020600020905b81548152906001019060200180831161087d57829003601f168201915b505050505081565b6009546001600160701b0380821692600160701b830490911691600160e01b900463ffffffff1690565b3360008181526004602090815260408083206001600160a01b038716808552925280832085905551919290917f8c5be1e5ebec7d5bd14f71427d1e84f3dd0314c0f7b2291e5b200ac8c7c3b925906109279086815260200190565b60405180910390a350600192915050565b6001600160a01b03831660009081526004602090815260408083203384529091528120546000191461099d576001600160a01b038416600090815260046020908152604080832033845290915281208054849290610997908490611ebd565b90915550505b6001600160a01b038416600090815260036020526040812080548492906109c5908490611ebd565b90915550506001600160a01b03808416600081815260036020526040908190208054860190555190918616906000805160206120b783398151915290610a0e9086815260200190565b60405180910390a35060019392505050565b60007f00000000000000000000000000000000000000000000000000000000000000004614610a5657610a51611891565b905090565b507f000000000000000000000000000000000000000000000000000000000000000090565b6007546001600160a01b0316151580610a9e57506008546001600160a01b031615155b15610abb5760405162dc149f60e41b815260040160405180910390fd5b6006546001600160a01b03163314610b105760405162461bcd60e51b815260206004820152601360248201527223a62c1029aba0a81d102327a92124a22222a760691b60448201526064015b60405180910390fd5b6006546001600160a01b03163314610b3b57604051632893247960e01b815260040160405180910390fd5b600780546001600160a01b039384166001600160a01b03199182161790915560088054929093169116179055565b600d5460009060ff1615610b7c57600080fd5b600d805460ff19166001179055600080610b946108a2565b506007546040516370a0823160e01b81523060048201529294509092506000916001600160a01b03909116906370a0823190602401602060405180830381865afa158015610be6573d6000803e3d6000fd5b505050506040513d601f19601f82011682018060405250810190610c0a9190611e8e565b6008546040516370a0823160e01b81523060048201529192506000916001600160a01b03909116906370a0823190602401602060405180830381865afa158015610c58573d6000803e3d6000fd5b505050506040513d601f19601f82011682018060405250810190610c7c9190611e8e565b90506000610c936001600160701b03861684611ebd565b90506000610caa6001600160701b03861684611ebd565b90506000610cb88787611940565b905060025460001415610cf8576103e8610cda610cd58486611ed4565b611a7f565b610ce49190611ebd565b9750610cf360006103e8611aef565b610d47565b610d44876001600160701b031660025485610d139190611ed4565b610d1d9190611f3e565b876001600160701b031660025485610d359190611ed4565b610d3f9190611f3e565b611b49565b97505b60008811610d6857604051633489be7560e21b815260040160405180910390fd5b610d728989611aef565b610d7e85858989611713565b60408051848152602081018490526001600160a01b038b16917f4c209b5fc8ad50758f13e2e1088ba56a560dff690a1c6fef26394f4c03821c4f910160405180910390a25050600d805460ff19169055509395945050505050565b600d54600090819060ff1615610dee57600080fd5b600d805460ff19166001179055600080610e066108a2565b506007546040516370a0823160e01b81523060048201529294509092506000916001600160a01b03909116906370a0823190602401602060405180830381865afa158015610e58573d6000803e3d6000fd5b505050506040513d601f19601f82011682018060405250810190610e7c9190611e8e565b6008546040516370a0823160e01b81523060048201529192506000916001600160a01b03909116906370a0823190602401602060405180830381865afa158015610eca573d6000803e3d6000fd5b505050506040513d601f19601f82011682018060405250810190610eee9190611e8e565b30600090815260036020526040812054919250610f0b8686611940565b600254909150610f1b8584611ed4565b610f259190611f3e565b600254909850610f358484611ed4565b610f3f9190611f3e565b9650871580610f4c575086155b15610f6a5760405163749383ad60e01b815260040160405180910390fd5b610f743083611b61565b600754610f8b906001600160a01b03168a8a611624565b600854610fa2906001600160a01b03168a89611624565b6007546040516370a0823160e01b81523060048201526001600160a01b03909116906370a0823190602401602060405180830381865afa158015610fea573d6000803e3d6000fd5b505050506040513d601f19601f8201168201806040525081019061100e9190611e8e565b6008546040516370a0823160e01b81523060048201529195506001600160a01b0316906370a0823190602401602060405180830381865afa158015611057573d6000803e3d6000fd5b505050506040513d601f19601f8201168201806040525081019061107b9190611e8e565b92506000806110886108a2565b509150915061109986868484611713565b82156110c2576009546110be906001600160701b03600160701b820481169116611ed4565b600c555b604080518b8152602081018b90526001600160a01b038d169133917fdccd412f0b1252819cb1fd330b93224ca42612892bb3f4f789976e6d81936496910160405180910390a35050600d805460ff1916905550959794965093945050505050565b6001805461082190611ef3565b33600090815260036020526040812080548391908390611151908490611ebd565b90915550506001600160a01b038316600081815260036020526040908190208054850190555133906000805160206120b7833981519152906109279086815260200190565b600d5460ff16156111a657600080fd5b600d805460ff191660011790556007546008546009546040516370a0823160e01b81523060048201526001600160a01b03938416939092169161124d91849186916001600160701b03169083906370a08231906024015b602060405180830381865afa15801561121a573d6000803e3d6000fd5b505050506040513d601f19601f8201168201806040525081019061123e9190611e8e565b6112489190611ebd565b611624565b6009546040516370a0823160e01b81523060048201526112959183918691600160701b90046001600160701b0316906001600160a01b038416906370a08231906024016111fd565b5050600d805460ff1916905550565b428410156112f45760405162461bcd60e51b815260206004820152601760248201527f5045524d49545f444541444c494e455f455850495245440000000000000000006044820152606401610b07565b60006112fe610a20565b6001600160a01b0389811660008181526005602090815260409182902080546001810190915582517f6e71edae12b1b97f4d1f60370fef10105fa2faae0126114a169c64845d6126c98184015280840194909452938c166060840152608083018b905260a083019390935260c08083018a90528151808403909101815260e08301909152805192019190912061190160f01b6101008301526101028201929092526101228101919091526101420160408051601f198184030181528282528051602091820120600080855291840180845281905260ff88169284019290925260608301869052608083018590529092509060019060a0016020604051602081039080840390855afa158015611417573d6000803e3d6000fd5b5050604051601f1901519150506001600160a01b0381161580159061144d5750886001600160a01b0316816001600160a01b0316145b6114995760405162461bcd60e51b815260206004820152601860248201527f494e56414c49445f5045524d49545f5349474e415455524500000000000000006044820152606401610b07565b6001600160a01b0390811660009081526004602090815260408083208b8516808552908352928190208a905551898152919350918a16917f8c5be1e5ebec7d5bd14f71427d1e84f3dd0314c0f7b2291e5b200ac8c7c3b925910160405180910390a350505050505050565b600d5460ff161561151457600080fd5b600d805460ff1916600117905560008061152c6108a2565b506007546040516370a0823160e01b8152306004820152929450909250611616916001600160a01b03909116906370a0823190602401602060405180830381865afa15801561157f573d6000803e3d6000fd5b505050506040513d601f19601f820116820180604052508101906115a39190611e8e565b6008546040516370a0823160e01b81523060048201526001600160a01b03909116906370a0823190602401602060405180830381865afa1580156115eb573d6000803e3d6000fd5b505050506040513d601f19601f8201168201806040525081019061160f9190611e8e565b8484611713565b5050600d805460ff19169055565b6040516001600160a01b03838116602483015260448201839052600091829186169060640160408051601f198184030181529181526020820180516001600160e01b031663a9059cbb60e01b1790525161167e9190611f52565b6000604051808303816000865af19150503d80600081146116bb576040519150601f19603f3d011682016040523d82523d6000602084013e6116c0565b606091505b50915091508115806116ee57508051158015906116ee5750808060200190518101906116ec9190611f6e565b155b1561170c576040516312171d8360e31b815260040160405180910390fd5b5050505050565b6001600160701b0384118061172e57506001600160701b0383115b1561174c576040516389560ca160e01b815260040160405180910390fd5b60095463ffffffff600160e01b909104811642039081161580159061177a57506000836001600160701b0316115b801561178f57506000826001600160701b0316115b156117fa578063ffffffff166117b7846117a885611bc3565b6001600160e01b031690611be2565b600a80546001600160e01b03929092169290920201905563ffffffff81166117e2836117a886611bc3565b600b80546001600160e01b0392909216929092020190555b506009805463ffffffff4216600160e01b026001600160e01b036001600160701b03878116600160701b9081026001600160e01b03199095168a83161794909417918216831794859055604080519382169282169290921783529290930490911660208201527fcf2aa50876cdfbb541206f89af0ee78d44a2abf8d328e37fa4917f982149848a910160405180910390a150505050565b60007f8b73c3c69bb8fe3d512ecc4cf759cc79239f7b179b0ffacaa9a75d522b39400f60006040516118c39190611f90565b60408051918290038220828201825260018352603160f81b6020938401528151928301939093528101919091527fc89efdaa54c0f20c7adf612882df0950f5a951637e0307cdcb4c672f298b8bc660608201524660808201523060a082015260c00160405160208183030381529060405280519060200120905090565b600080600660009054906101000a90046001600160a01b03166001600160a01b031663017e7e586040518163ffffffff1660e01b8152600401602060405180830381865afa158015611996573d6000803e3d6000fd5b505050506040513d601f19601f820116820180604052508101906119ba919061202c565b600c546001600160a01b038216158015945091925090611a6b578015611a665760006119f5610cd56001600160701b03808816908916611ed4565b90506000611a0283611a7f565b905080821115611a63576000611a188284611ebd565b600254611a259190611ed4565b9050600082611a35856005611ed4565b611a3f9190612049565b90506000611a4d8284611f3e565b90508015611a5f57611a5f8782611aef565b5050505b50505b611a77565b8015611a77576000600c555b505092915050565b60006003821115611ae05750806000611a99600283611f3e565b611aa4906001612049565b90505b81811015611ada57905080600281611abf8186611f3e565b611ac99190612049565b611ad39190611f3e565b9050611aa7565b50919050565b8115611aea575060015b919050565b8060026000828254611b019190612049565b90915550506001600160a01b0382166000818152600360209081526040808320805486019055518481526000805160206120b783398151915291015b60405180910390a35050565b6000818310611b585781611b5a565b825b9392505050565b6001600160a01b03821660009081526003602052604081208054839290611b89908490611ebd565b90915550506002805482900390556040518181526000906001600160a01b038416906000805160206120b783398151915290602001611b3d565b6000611bdc600160701b6001600160701b038416612061565b92915050565b6000611b5a6001600160701b03831684612090565b6001600160a01b0381168114611c0c57600080fd5b50565b600080600080600060808688031215611c2757600080fd5b85359450602086013593506040860135611c4081611bf7565b9250606086013567ffffffffffffffff80821115611c5d57600080fd5b818801915088601f830112611c7157600080fd5b813581811115611c8057600080fd5b896020828501011115611c9257600080fd5b9699959850939650602001949392505050565b60005b83811015611cc0578181015183820152602001611ca8565b83811115611ccf576000848401525b50505050565b6020815260008251806020840152611cf4816040850160208701611ca5565b601f01601f19169190910160400192915050565b60008060408385031215611d1b57600080fd5b8235611d2681611bf7565b946020939093013593505050565b600080600060608486031215611d4957600080fd5b8335611d5481611bf7565b92506020840135611d6481611bf7565b929592945050506040919091013590565b60008060408385031215611d8857600080fd5b8235611d9381611bf7565b91506020830135611da381611bf7565b809150509250929050565b600060208284031215611dc057600080fd5b8135611b5a81611bf7565b600080600080600080600060e0888a031215611de657600080fd5b8735611df181611bf7565b96506020880135611e0181611bf7565b95506040880135945060608801359350608088013560ff81168114611e2557600080fd5b9699959850939692959460a0840135945060c09093013592915050565b60018060a01b038616815284602082015283604082015260806060820152816080820152818360a0830137600081830160a090810191909152601f909201601f19160101949350505050565b600060208284031215611ea057600080fd5b5051919050565b634e487b7160e01b600052601160045260246000fd5b600082821015611ecf57611ecf611ea7565b500390565b6000816000190483118215151615611eee57611eee611ea7565b500290565b600181811c90821680611f0757607f821691505b60208210811415611ada57634e487b7160e01b600052602260045260246000fd5b634e487b7160e01b600052601260045260246000fd5b600082611f4d57611f4d611f28565b500490565b60008251611f64818460208701611ca5565b9190910192915050565b600060208284031215611f8057600080fd5b81518015158114611b5a57600080fd5b600080835481600182811c915080831680611fac57607f831692505b6020808410821415611fcc57634e487b7160e01b86526022600452602486fd5b818015611fe05760018114611ff15761201e565b60ff1986168952848901965061201e565b60008a81526020902060005b868110156120165781548b820152908501908301611ffd565b505084890196505b509498975050505050505050565b60006020828403121561203e57600080fd5b8151611b5a81611bf7565b6000821982111561205c5761205c611ea7565b500190565b60006001600160e01b038281168482168115158284048211161561208757612087611ea7565b02949350505050565b60006001600160e01b03838116806120aa576120aa611f28565b9216919091049291505056feddf252ad1be2c89b69c2b068fc378daa952ba7f163c4a11628f55a4df523b3efa26469706673582212207634dfd6b8e776aa4b50117b5dac7e55c6f1224470a08af95284c2bc0c52d0d264736f6c634300080a0033a26469706673582212201d33074038a31539caa0c80c89f45a92a669ec6c4d5c202615d0a1fe1dd9748964736f6c634300080a0033",
  "linkReferences": {
    "contracts/GLXSwapV2Library.sol": {
      "GLXSwapV2Library": [
        {
          "length": 20,
          "start": 1135
        },
        {
          "length": 20,
          "start": 1367
        },
        {
          "length": 20,
          "start": 2249
        },
        {
          "length": 20,
          "start": 3108
        },
        {
          "length": 20,
          "start": 3373
        },
        {
          "length": 20,
          "start": 4160
        },
        {
          "length": 20,
          "start": 4375
        },
        {
          "length": 20,
          "start": 4696
        },
        {
          "length": 20,
          "start": 4944
        },
        {
          "length": 20,
          "start": 5018
        },
        {
          "length": 20,
          "start": 5696
        },
        {
          "length": 20,
          "start": 8039
        },
        {
          "length": 20,
          "start": 8211
        },
        {
          "length": 20,
          "start": 8402
        }
      ]
    }
  },
  "deployedLinkReferences": {
    "contracts/GLXSwapV2Library.sol": {
      "GLXSwapV2Library": [
        {
          "length": 20,
          "start": 932
        },
        {
          "length": 20,
          "start": 1164
        },
        {
          "length": 20,
          "start": 2046
        },
        {
          "length": 20,
          "start": 2905
        },
        {
          "length": 20,
          "start": 3170
        },
        {
          "length": 20,
          "start": 3957
        },
        {
          "length": 20,
          "start": 4172
        },
        {
          "length": 20,
          "start": 4493
        },
        {
          "length": 20,
          "start": 4741
        },
        {
          "length": 20,
          "start": 4815
        },
        {
          "length": 20,
          "start": 5493
        },
        {
          "length": 20,
          "start": 7836
        },
        {
          "length": 20,
          "start": 8008
        },
        {
          "length": 20,
          "start": 8199
        }
      ]
    }
  }
}