{
  "abi": [
    {
      "inputs": [],
      "stateMutability": "nonpayable",
      "type": "constructor"
    },
    {
      "inputs": [],
      "name": "AlreadyInitialized",
      "type": "error"
    },
    {
      "inputs": [],
      "name": "BalanceOverflow",
      "type": "error"
    },
    {
      "inputs": [],
      "name": "ForbiddenAction",
      "type": "error"
    },
    {
      "inputs": [],
      "name": "InsufficientInputAmount",
      "type": "error"
    },
    {
      "inputs": [],
      "name": "InsufficientLiquidity",
      "type": "error"
    },
    {
      "inputs": [],
      "name": "InsufficientLiquidityBurned",
      "type": "error"
    },
    {
      "inputs": [],
      "name": "InsufficientLiquidityMinted",
      "type": "error"
    },
    {
      "inputs": [],
      "name": "InsufficientOutputAmount",
      "type": "error"
    },
    {
      "inputs": [],
      "name": "InvalidK",
      "type": "error"
    },
    {
      "inputs": [],
      "name": "TransferFailed",
      "type": "error"
    },
    {
      "anonymous": false,
      "inputs": [
        {
          "indexed": true,
          "internalType": "address",
          "name": "owner",
          "type": "address"
        },
        {
          "indexed": true,
          "internalType": "address",
          "name": "spender",
          "type": "address"
        },
        {
          "indexed": false,
          "internalType": "uint256",
          "name": "amount",
          "type": "uint256"
        }
      ],
      "name": "Approval",
      "type": "event"
    },
    {
      "anonymous": false,
      "inputs": [
        {
          "indexed": true,
          "internalType": "address",
          "name": "sender",
          "type": "address"
        },
        {
          "indexed": false,
          "internalType": "uint256",
          "name": "amount0",
          "type": "uint256"
        },
        {
          "indexed": false,
          "internalType": "uint256",
          "name": "amount1",
          "type": "uint256"
        },
        {
          "indexed": true,
          "internalType": "address",
          "name": "to",
          "type": "address"
        }
      ],
      "name": "Burn",
      "type": "event"
    },
    {
      "anonymous": false,
      "inputs": [
        {
          "indexed": true,
          "internalType": "address",
          "name": "sender",
          "type": "address"
        },
        {
          "indexed": false,
          "internalType": "uint256",
          "name": "amount0",
          "type": "uint256"
        },
        {
          "indexed": false,
          "internalType": "uint256",
          "name": "amount1",
          "type": "uint256"
        }
      ],
      "name": "Mint",
      "type": "event"
    },
    {
      "anonymous": false,
      "inputs": [
        {
          "indexed": true,
          "internalType": "address",
          "name": "sender",
          "type": "address"
        },
        {
          "indexed": false,
          "internalType": "uint256",
          "name": "amount0In",
          "type": "uint256"
        },
        {
          "indexed": false,
          "internalType": "uint256",
          "name": "amount1In",
          "type": "uint256"
        },
        {
          "indexed": false,
          "internalType": "uint256",
          "name": "amount0Out",
          "type": "uint256"
        },
        {
          "indexed": false,
          "internalType": "uint256",
          "name": "amount1Out",
          "type": "uint256"
        },
        {
          "indexed": true,
          "internalType": "address",
          "name": "to",
          "type": "address"
        }
      ],
      "name": "Swap",
      "type": "event"
    },
    {
      "anonymous": false,
      "inputs": [
        {
          "indexed": false,
          "internalType": "uint256",
          "name": "reserve0",
          "type": "uint256"
        },
        {
          "indexed": false,
          "internalType": "uint256",
          "name": "reserve1",
          "type": "uint256"
        }
      ],
      "name": "Sync",
      "type": "event"
    },
    {
      "anonymous": false,
      "inputs": [
        {
          "indexed": true,
          "internalType": "address",
          "name": "from",
          "type": "address"
        },
        {
          "indexed": true,
          "internalType": "address",
          "name": "to",
          "type": "address"
        },
        {
          "indexed": false,
          "internalType": "uint256",
          "name": "amount",
          "type": "uint256"
        }
      ],
      "name": "Transfer",
      "type": "event"
    },
    {
      "inputs": [],
      "name": "DOMAIN_SEPARATOR",
      "outputs": [
        {
          "internalType": "bytes32",
          "name": "",
          "type": "bytes32"
        }
      ],
      "stateMutability": "view",
      "type": "function"
    },
    {
      "inputs": [],
      "name": "PERMIT_TYPEHASH",
      "outputs": [
        {
          "internalType": "bytes32",
          "name": "",
          "type": "bytes32"
        }
      ],
      "stateMutability": "view",
      "type": "function"
    },
    {
      "inputs": [
        {
          "internalType": "address",
          "name": "",
          "type": "address"
        },
        {
          "internalType": "address",
          "name": "",
          "type": "address"
        }
      ],
      "name": "allowance",
      "outputs": [
        {
          "internalType": "uint256",
          "name": "",
          "type": "uint256"
        }
      ],
      "stateMutability": "view",
      "type": "function"
    },
    {
      "inputs": [
        {
          "internalType": "address",
          "name": "spender",
          "type": "address"
        },
        {
          "internalType": "uint256",
          "name": "amount",
          "type": "uint256"
        }
      ],
      "name": "approve",
      "outputs": [
        {
          "internalType": "bool",
          "name": "",
          "type": "bool"
        }
      ],
      "stateMutability": "nonpayable",
      "type": "function"
    },
    {
      "inputs": [
        {
          "internalType": "address",
          "name": "",
          "type": "address"
        }
      ],
      "name": "balanceOf",
      "outputs": [
        {
          "internalType": "uint256",
          "name": "",
          "type": "uint256"
        }
      ],
      "stateMutability": "view",
      "type": "function"
    },
    {
      "inputs": [
        {
          "internalType": "address",
          "name": "to",
          "type": "address"
        }
      ],
      "name": "burn",
      "outputs": [
        {
          "internalType": "uint256",
          "name": "amount0",
          "type": "uint256"
        },
        {
          "internalType": "uint256",
          "name": "amount1",
          "type": "uint256"
        }
      ],
      "stateMutability": "nonpayable",
      "type": "function"
    },
    {
      "inputs": [],
      "name": "decimals",
      "outputs": [
        {
          "internalType": "uint8",
          "name": "",
          "type": "uint8"
        }
      ],
      "stateMutability": "view",
      "type": "function"
    },
    {
      "inputs": [],
      "name": "factory",
      "outputs": [
        {
          "internalType": "address",
          "name": "",
          "type": "address"
        }
      ],
      "stateMutability": "view",
      "type": "function"
    },
    {
      "inputs": [],
      "name": "getReserves",
      "outputs": [
        {
          "internalType": "uint112",
          "name": "",
          "type": "uint112"
        },
        {
          "internalType": "uint112",
          "name": "",
          "type": "uint112"
        },
        {
          "internalType": "uint32",
          "name": "",
          "type": "uint32"
        }
      ],
      "stateMutability": "view",
      "type": "function"
    },
    {
      "inputs": [
        {
          "internalType": "address",
          "name": "token0_",
          "type": "address"
        },
        {
          "internalType": "address",
          "name": "token1_",
          "type": "address"
        }
      ],
      "name": "initialize",
      "outputs": [],
      "stateMutability": "nonpayable",
      "type": "function"
    },
    {
      "inputs": [],
      "name": "kLast",
      "outputs": [
        {
          "internalType": "uint256",
          "name": "",
          "type": "uint256"
        }
      ],
      "stateMutability": "view",
      "type": "function"
    },
    {
      "inputs": [
        {
          "internalType": "address",
          "name": "to",
          "type": "address"
        }
      ],
      "name": "mint",
      "outputs": [
        {
          "internalType": "uint256",
          "name": "liquidity",
          "type": "uint256"
        }
      ],
      "stateMutability": "nonpayable",
      "type": "function"
    },
    {
      "inputs": [],
      "name": "name",
      "outputs": [
        {
          "internalType": "string",
          "name": "",
          "type": "string"
        }
      ],
      "stateMutability": "view",
      "type": "function"
    },
    {
      "inputs": [
        {
          "internalType": "address",
          "name": "",
          "type": "address"
        }
      ],
      "name": "nonces",
      "outputs": [
        {
          "internalType": "uint256",
          "name": "",
          "type": "uint256"
        }
      ],
      "stateMutability": "view",
      "type": "function"
    },
    {
      "inputs": [
        {
          "internalType": "address",
          "name": "owner",
          "type": "address"
        },
        {
          "internalType": "address",
          "name": "spender",
          "type": "address"
        },
        {
          "internalType": "uint256",
          "name": "value",
          "type": "uint256"
        },
        {
          "internalType": "uint256",
          "name": "deadline",
          "type": "uint256"
        },
        {
          "internalType": "uint8",
          "name": "v",
          "type": "uint8"
        },
        {
          "internalType": "bytes32",
          "name": "r",
          "type": "bytes32"
        },
        {
          "internalType": "bytes32",
          "name": "s",
          "type": "bytes32"
        }
      ],
      "name": "permit",
      "outputs": [],
      "stateMutability": "nonpayable",
      "type": "function"
    },
    {
      "inputs": [],
      "name": "price0CumulativeLast",
      "outputs": [
        {
          "internalType": "uint256",
          "name": "",
          "type": "uint256"
        }
      ],
      "stateMutability": "view",
      "type": "function"
    },
    {
      "inputs": [],
      "name": "price1CumulativeLast",
      "outputs": [
        {
          "internalType": "uint256",
          "name": "",
          "type": "uint256"
        }
      ],
      "stateMutability": "view",
      "type": "function"
    },
    {
      "inputs": [
        {
          "internalType": "address",
          "name": "to",
          "type": "address"
        }
      ],
      "name": "skim",
      "outputs": [],
      "stateMutability": "nonpayable",
      "type": "function"
    },
    {
      "inputs": [
        {
          "internalType": "uint256",
          "name": "amount0Out",
          "type": "uint256"
        },
        {
          "internalType": "uint256",
          "name": "amount1Out",
          "type": "uint256"
        },
        {
          "internalType": "address",
          "name": "to",
          "type": "address"
        },
        {
          "internalType": "bytes",
          "name": "data",
          "type": "bytes"
        }
      ],
      "name": "swap",
      "outputs": [],
      "stateMutability": "nonpayable",
      "type": "function"
    },
    {
      "inputs": [],
      "name": "symbol",
      "outputs": [
        {
          "internalType": "string",
          "name": "",
          "type": "string"
        }
      ],
      "stateMutability": "view",
      "type": "function"
    },
    {
      "inputs": [],
      "name": "sync",
      "outputs": [],
      "stateMutability": "nonpayable",
      "type": "function"
    },
    {
      "inputs": [],
      "name": "token0",
      "outputs": [
        {
          "internalType": "address",
          "name": "",
          "type": "address"
        }
      ],
      "stateMutability": "view",
      "type": "function"
    },
    {
      "inputs": [],
      "name": "token1",
      "outputs": [
        {
          "internalType": "address",
          "name": "",
          "type": "address"
        }
      ],
      "stateMutability": "view",
      "type": "function"
    },
    {
      "inputs": [],
      "name": "totalSupply",
      "outputs": [
        {
          "internalType": "uint256",
          "name": "",
          "type": "uint256"
        }
      ],
      "stateMutability": "view",
      "type": "function"
    },
    {
      "inputs": [
        {
          "internalType": "address",
          "name": "to",
          "type": "address"
        },
        {
          "internalType": "uint256",
          "name": "amount",
          "type": "uint256"
        }
      ],
      "name": "transfer",
      "outputs": [
        {
          "internalType": "bool",
          "name": "",
          "type": "bool"
        }
      ],
      "stateMutability": "nonpayable",
      "type": "function"
    },
    {
      "inputs": [
        {
          "internalType": "address",
          "name": "from",
          "type": "address"
        },
        {
          "internalType": "address",
          "name": "to",
          "type": "address"
        },
        {
          "internalType": "uint256",
          "name": "amount",
          "type": "uint256"
        }
      ],
      "name": "transferFrom",
      "outputs": [
        {
          "internalType": "bool",
          "name": "",
          "type": "bool"
        }
      ],
      "stateMutability": "nonpayable",
      "type": "function"
    }
  ],
  "bytecode": {
    "object": "0x60e06040523480156200001157600080fd5b506040518060400160405280600881526020016723a62c102830b4b960c11b8152506040518060400160405280600481526020016323a62c1960e11b81525060128260009081620000639190620001fc565b506001620000728382620001fc565b5060ff81166080524660a05262000088620000a6565b60c0525050600680546001600160a01b031916331790555062000346565b60007f8b73c3c69bb8fe3d512ecc4cf759cc79239f7b179b0ffacaa9a75d522b39400f6000604051620000da9190620002c8565b60408051918290038220828201825260018352603160f81b6020938401528151928301939093528101919091527fc89efdaa54c0f20c7adf612882df0950f5a951637e0307cdcb4c672f298b8bc660608201524660808201523060a082015260c00160405160208183030381529060405280519060200120905090565b634e487b7160e01b600052604160045260246000fd5b600181811c908216806200018257607f821691505b602082108103620001a357634e487b7160e01b600052602260045260246000fd5b50919050565b601f821115620001f757600081815260208120601f850160051c81016020861015620001d25750805b601f850160051c820191505b81811015620001f357828155600101620001de565b5050505b505050565b81516001600160401b0381111562000218576200021862000157565b62000230816200022984546200016d565b84620001a9565b602080601f8311600181146200026857600084156200024f5750858301515b600019600386901b1c1916600185901b178555620001f3565b600085815260208120601f198616915b82811015620002995788860151825594840194600190910190840162000278565b5085821015620002b85787850151600019600388901b60f8161c191681555b5050505050600190811b01905550565b6000808354620002d8816200016d565b60018281168015620002f3576001811462000309576200033a565b60ff19841687528215158302870194506200033a565b8760005260208060002060005b85811015620003315781548a82015290840190820162000316565b50505082870194505b50929695505050505050565b60805160a05160c05161210d620003766000396000610a5901526000610a240152600061029e015261210d6000f3fe608060405234801561001057600080fd5b506004361061018e5760003560e01c80636a627842116100de578063a9059cbb11610097578063d21220a711610071578063d21220a7146103c4578063d505accf146103d7578063dd62ed3e146103ea578063fff6cae91461041557600080fd5b8063a9059cbb1461038b578063bc25cf771461039e578063c45a0155146103b157600080fd5b80636a627842146102ff57806370a08231146103125780637464fc3d146103325780637ecebe001461033b57806389afcb441461035b57806395d89b411461038357600080fd5b806323b872dd1161014b5780633644e515116101255780633644e515146102d2578063485cc955146102da5780635909c0d5146102ed5780635a3d5493146102f657600080fd5b806323b872dd1461025f57806330adf81f14610272578063313ce5671461029957600080fd5b8063022c0d9f1461019357806306fdde03146101a85780630902f1ac146101c6578063095ea7b3146101fa5780630dfe16811461021d57806318160ddd14610248575b600080fd5b6101a66101a1366004611c0e565b61041d565b005b6101b0610814565b6040516101bd9190611cd4565b60405180910390f35b6101ce6108a2565b604080516001600160701b03948516815293909216602084015263ffffffff16908201526060016101bd565b61020d610208366004611d07565b6108cc565b60405190151581526020016101bd565b600754610230906001600160a01b031681565b6040516001600160a01b0390911681526020016101bd565b61025160025481565b6040519081526020016101bd565b61020d61026d366004611d33565b610938565b6102517f6e71edae12b1b97f4d1f60370fef10105fa2faae0126114a169c64845d6126c981565b6102c07f000000000000000000000000000000000000000000000000000000000000000081565b60405160ff90911681526020016101bd565b610251610a20565b6101a66102e8366004611d74565b610a7b565b610251600a5481565b610251600b5481565b61025161030d366004611dad565b610b69565b610251610320366004611dad565b60036020526000908152604090205481565b610251600c5481565b610251610349366004611dad565b60056020526000908152604090205481565b61036e610369366004611dad565b610dd8565b604080519283526020830191909152016101bd565b6101b0611122565b61020d610399366004611d07565b61112f565b6101a66103ac366004611dad565b611195565b600654610230906001600160a01b031681565b600854610230906001600160a01b031681565b6101a66103e5366004611dca565b6112a3565b6102516103f8366004611d74565b600460209081526000928352604080842090915290825290205481565b6101a6611503565b600d5460ff161561042d57600080fd5b600d805460ff1916600117905584158015610446575083155b15610464576040516342301c2360e01b815260040160405180910390fd5b60008061046f6108a2565b5091509150816001600160701b03168711806104935750806001600160701b031686115b156104b15760405163bb55fd2760e01b815260040160405180910390fd5b60008088156104d1576007546104d1906001600160a01b0316888b611623565b87156104ee576008546104ee906001600160a01b0316888a611623565b841561055b5760405163156ce6bd60e01b81526001600160a01b0388169063156ce6bd906105289033908d908d908c908c90600401611e41565b600060405180830381600087803b15801561054257600080fd5b505af1158015610556573d6000803e3d6000fd5b505050505b6007546040516370a0823160e01b81523060048201526001600160a01b03909116906370a0823190602401602060405180830381865afa1580156105a3573d6000803e3d6000fd5b505050506040513d601f19601f820116820180604052508101906105c79190611e8d565b6008546040516370a0823160e01b81523060048201529193506001600160a01b0316906370a0823190602401602060405180830381865afa158015610610573d6000803e3d6000fd5b505050506040513d601f19601f820116820180604052508101906106349190611e8d565b600954909150600090610651908b906001600160701b0316611ebc565b831161065e57600061067f565b600954610675908b906001600160701b0316611ebc565b61067f9084611ebc565b6009549091506000906106a3908b90600160701b90046001600160701b0316611ebc565b83116106b05760006106d8565b6009546106ce908b90600160701b90046001600160701b0316611ebc565b6106d89084611ebc565b9050811580156106e6575080155b156107045760405163098fb56160e01b815260040160405180910390fd5b6000610711836003611ed3565b61071d866103e8611ed3565b6107279190611ebc565b90506000610736836003611ed3565b610742866103e8611ed3565b61074c9190611ebc565b90506107646001600160701b03808916908a16611ed3565b61077190620f4240611ed3565b61077b8284611ed3565b101561079a57604051632f62f0d960e21b815260040160405180910390fd5b50506107a884848888611712565b60408051838152602081018390529081018c9052606081018b90526001600160a01b038a169033907fd78ad95fa46c994b6551d0da85fc275fe613ce37657fb8d5e3d130840159d8229060800160405180910390a35050600d805460ff19169055505050505050505050565b6000805461082190611ef2565b80601f016020809104026020016040519081016040528092919081815260200182805461084d90611ef2565b801561089a5780601f1061086f5761010080835404028352916020019161089a565b820191906000526020600020905b81548152906001019060200180831161087d57829003601f168201915b505050505081565b6009546001600160701b0380821692600160701b830490911691600160e01b900463ffffffff1690565b3360008181526004602090815260408083206001600160a01b038716808552925280832085905551919290917f8c5be1e5ebec7d5bd14f71427d1e84f3dd0314c0f7b2291e5b200ac8c7c3b925906109279086815260200190565b60405180910390a350600192915050565b6001600160a01b03831660009081526004602090815260408083203384529091528120546000191461099d576001600160a01b038416600090815260046020908152604080832033845290915281208054849290610997908490611ebc565b90915550505b6001600160a01b038416600090815260036020526040812080548492906109c5908490611ebc565b90915550506001600160a01b03808416600081815260036020526040908190208054860190555190918616906000805160206120b883398151915290610a0e9086815260200190565b60405180910390a35060019392505050565b60007f00000000000000000000000000000000000000000000000000000000000000004614610a5657610a51611890565b905090565b507f000000000000000000000000000000000000000000000000000000000000000090565b6007546001600160a01b0316151580610a9e57506008546001600160a01b031615155b15610abb5760405162dc149f60e41b815260040160405180910390fd5b6006546001600160a01b03163314610b105760405162461bcd60e51b815260206004820152601360248201527223a62c1029aba0a81d102327a92124a22222a760691b60448201526064015b60405180910390fd5b6006546001600160a01b03163314610b3b57604051632893247960e01b815260040160405180910390fd5b600780546001600160a01b039384166001600160a01b03199182161790915560088054929093169116179055565b600d5460009060ff1615610b7c57600080fd5b600d805460ff19166001179055600080610b946108a2565b506007546040516370a0823160e01b81523060048201529294509092506000916001600160a01b03909116906370a0823190602401602060405180830381865afa158015610be6573d6000803e3d6000fd5b505050506040513d601f19601f82011682018060405250810190610c0a9190611e8d565b6008546040516370a0823160e01b81523060048201529192506000916001600160a01b03909116906370a0823190602401602060405180830381865afa158015610c58573d6000803e3d6000fd5b505050506040513d601f19601f82011682018060405250810190610c7c9190611e8d565b90506000610c936001600160701b03861684611ebc565b90506000610caa6001600160701b03861684611ebc565b90506000610cb8878761193f565b9050600254600003610cf7576103e8610cd9610cd48486611ed3565b611a7e565b610ce39190611ebc565b9750610cf260006103e8611aee565b610d46565b610d43876001600160701b031660025485610d129190611ed3565b610d1c9190611f3c565b876001600160701b031660025485610d349190611ed3565b610d3e9190611f3c565b611b48565b97505b60008811610d6757604051633489be7560e21b815260040160405180910390fd5b610d718989611aee565b610d7d85858989611712565b60408051848152602081018490526001600160a01b038b16917f4c209b5fc8ad50758f13e2e1088ba56a560dff690a1c6fef26394f4c03821c4f910160405180910390a25050600d805460ff19169055509395945050505050565b600d54600090819060ff1615610ded57600080fd5b600d805460ff19166001179055600080610e056108a2565b506007546040516370a0823160e01b81523060048201529294509092506000916001600160a01b03909116906370a0823190602401602060405180830381865afa158015610e57573d6000803e3d6000fd5b505050506040513d601f19601f82011682018060405250810190610e7b9190611e8d565b6008546040516370a0823160e01b81523060048201529192506000916001600160a01b03909116906370a0823190602401602060405180830381865afa158015610ec9573d6000803e3d6000fd5b505050506040513d601f19601f82011682018060405250810190610eed9190611e8d565b30600090815260036020526040812054919250610f0a868661193f565b600254909150610f1a8584611ed3565b610f249190611f3c565b600254909850610f348484611ed3565b610f3e9190611f3c565b9650871580610f4b575086155b15610f695760405163749383ad60e01b815260040160405180910390fd5b610f733083611b60565b600754610f8a906001600160a01b03168a8a611623565b600854610fa1906001600160a01b03168a89611623565b6007546040516370a0823160e01b81523060048201526001600160a01b03909116906370a0823190602401602060405180830381865afa158015610fe9573d6000803e3d6000fd5b505050506040513d601f19601f8201168201806040525081019061100d9190611e8d565b6008546040516370a0823160e01b81523060048201529195506001600160a01b0316906370a0823190602401602060405180830381865afa158015611056573d6000803e3d6000fd5b505050506040513d601f19601f8201168201806040525081019061107a9190611e8d565b92506000806110876108a2565b509150915061109886868484611712565b82156110c1576009546110bd906001600160701b03600160701b820481169116611ed3565b600c555b604080518b8152602081018b90526001600160a01b038d169133917fdccd412f0b1252819cb1fd330b93224ca42612892bb3f4f789976e6d81936496910160405180910390a35050600d805460ff1916905550959794965093945050505050565b6001805461082190611ef2565b33600090815260036020526040812080548391908390611150908490611ebc565b90915550506001600160a01b038316600081815260036020526040908190208054850190555133906000805160206120b8833981519152906109279086815260200190565b600d5460ff16156111a557600080fd5b600d805460ff191660011790556007546008546009546040516370a0823160e01b81523060048201526001600160a01b03938416939092169161124c91849186916001600160701b03169083906370a08231906024015b602060405180830381865afa158015611219573d6000803e3d6000fd5b505050506040513d601f19601f8201168201806040525081019061123d9190611e8d565b6112479190611ebc565b611623565b6009546040516370a0823160e01b81523060048201526112949183918691600160701b90046001600160701b0316906001600160a01b038416906370a08231906024016111fc565b5050600d805460ff1916905550565b428410156112f35760405162461bcd60e51b815260206004820152601760248201527f5045524d49545f444541444c494e455f455850495245440000000000000000006044820152606401610b07565b60006112fd610a20565b6001600160a01b0389811660008181526005602090815260409182902080546001810190915582517f6e71edae12b1b97f4d1f60370fef10105fa2faae0126114a169c64845d6126c98184015280840194909452938c166060840152608083018b905260a083019390935260c08083018a90528151808403909101815260e08301909152805192019190912061190160f01b6101008301526101028201929092526101228101919091526101420160408051601f198184030181528282528051602091820120600080855291840180845281905260ff88169284019290925260608301869052608083018590529092509060019060a0016020604051602081039080840390855afa158015611416573d6000803e3d6000fd5b5050604051601f1901519150506001600160a01b0381161580159061144c5750886001600160a01b0316816001600160a01b0316145b6114985760405162461bcd60e51b815260206004820152601860248201527f494e56414c49445f5045524d49545f5349474e415455524500000000000000006044820152606401610b07565b6001600160a01b0390811660009081526004602090815260408083208b8516808552908352928190208a905551898152919350918a16917f8c5be1e5ebec7d5bd14f71427d1e84f3dd0314c0f7b2291e5b200ac8c7c3b925910160405180910390a350505050505050565b600d5460ff161561151357600080fd5b600d805460ff1916600117905560008061152b6108a2565b506007546040516370a0823160e01b8152306004820152929450909250611615916001600160a01b03909116906370a0823190602401602060405180830381865afa15801561157e573d6000803e3d6000fd5b505050506040513d601f19601f820116820180604052508101906115a29190611e8d565b6008546040516370a0823160e01b81523060048201526001600160a01b03909116906370a0823190602401602060405180830381865afa1580156115ea573d6000803e3d6000fd5b505050506040513d601f19601f8201168201806040525081019061160e9190611e8d565b8484611712565b5050600d805460ff19169055565b6040516001600160a01b03838116602483015260448201839052600091829186169060640160408051601f198184030181529181526020820180516001600160e01b031663a9059cbb60e01b1790525161167d9190611f50565b6000604051808303816000865af19150503d80600081146116ba576040519150601f19603f3d011682016040523d82523d6000602084013e6116bf565b606091505b50915091508115806116ed57508051158015906116ed5750808060200190518101906116eb9190611f6c565b155b1561170b576040516312171d8360e31b815260040160405180910390fd5b5050505050565b6001600160701b0384118061172d57506001600160701b0383115b1561174b576040516389560ca160e01b815260040160405180910390fd5b60095463ffffffff600160e01b909104811642039081161580159061177957506000836001600160701b0316115b801561178e57506000826001600160701b0316115b156117f9578063ffffffff166117b6846117a785611bc2565b6001600160e01b031690611be1565b600a80546001600160e01b03929092169290920201905563ffffffff81166117e1836117a786611bc2565b600b80546001600160e01b0392909216929092020190555b506009805463ffffffff4216600160e01b026001600160e01b036001600160701b03878116600160701b9081026001600160e01b03199095168a83161794909417918216831794859055604080519382169282169290921783529290930490911660208201527fcf2aa50876cdfbb541206f89af0ee78d44a2abf8d328e37fa4917f982149848a910160405180910390a150505050565b60007f8b73c3c69bb8fe3d512ecc4cf759cc79239f7b179b0ffacaa9a75d522b39400f60006040516118c29190611f8e565b60408051918290038220828201825260018352603160f81b6020938401528151928301939093528101919091527fc89efdaa54c0f20c7adf612882df0950f5a951637e0307cdcb4c672f298b8bc660608201524660808201523060a082015260c00160405160208183030381529060405280519060200120905090565b600080600660009054906101000a90046001600160a01b03166001600160a01b031663017e7e586040518163ffffffff1660e01b8152600401602060405180830381865afa158015611995573d6000803e3d6000fd5b505050506040513d601f19601f820116820180604052508101906119b9919061202d565b600c546001600160a01b038216158015945091925090611a6a578015611a655760006119f4610cd46001600160701b03808816908916611ed3565b90506000611a0183611a7e565b905080821115611a62576000611a178284611ebc565b600254611a249190611ed3565b9050600082611a34856005611ed3565b611a3e919061204a565b90506000611a4c8284611f3c565b90508015611a5e57611a5e8782611aee565b5050505b50505b611a76565b8015611a76576000600c555b505092915050565b60006003821115611adf5750806000611a98600283611f3c565b611aa390600161204a565b90505b81811015611ad957905080600281611abe8186611f3c565b611ac8919061204a565b611ad29190611f3c565b9050611aa6565b50919050565b8115611ae9575060015b919050565b8060026000828254611b00919061204a565b90915550506001600160a01b0382166000818152600360209081526040808320805486019055518481526000805160206120b883398151915291015b60405180910390a35050565b6000818310611b575781611b59565b825b9392505050565b6001600160a01b03821660009081526003602052604081208054839290611b88908490611ebc565b90915550506002805482900390556040518181526000906001600160a01b038416906000805160206120b883398151915290602001611b3c565b6000611bdb600160701b6001600160701b038416612062565b92915050565b6000611b596001600160701b03831684612091565b6001600160a01b0381168114611c0b57600080fd5b50565b600080600080600060808688031215611c2657600080fd5b85359450602086013593506040860135611c3f81611bf6565b9250606086013567ffffffffffffffff80821115611c5c57600080fd5b818801915088601f830112611c7057600080fd5b813581811115611c7f57600080fd5b896020828501011115611c9157600080fd5b9699959850939650602001949392505050565b60005b83811015611cbf578181015183820152602001611ca7565b83811115611cce576000848401525b50505050565b6020815260008251806020840152611cf3816040850160208701611ca4565b601f01601f19169190910160400192915050565b60008060408385031215611d1a57600080fd5b8235611d2581611bf6565b946020939093013593505050565b600080600060608486031215611d4857600080fd5b8335611d5381611bf6565b92506020840135611d6381611bf6565b929592945050506040919091013590565b60008060408385031215611d8757600080fd5b8235611d9281611bf6565b91506020830135611da281611bf6565b809150509250929050565b600060208284031215611dbf57600080fd5b8135611b5981611bf6565b600080600080600080600060e0888a031215611de557600080fd5b8735611df081611bf6565b96506020880135611e0081611bf6565b95506040880135945060608801359350608088013560ff81168114611e2457600080fd5b9699959850939692959460a0840135945060c09093013592915050565b60018060a01b038616815284602082015283604082015260806060820152816080820152818360a0830137600081830160a090810191909152601f909201601f19160101949350505050565b600060208284031215611e9f57600080fd5b5051919050565b634e487b7160e01b600052601160045260246000fd5b600082821015611ece57611ece611ea6565b500390565b6000816000190483118215151615611eed57611eed611ea6565b500290565b600181811c90821680611f0657607f821691505b602082108103611ad957634e487b7160e01b600052602260045260246000fd5b634e487b7160e01b600052601260045260246000fd5b600082611f4b57611f4b611f26565b500490565b60008251611f62818460208701611ca4565b9190910192915050565b600060208284031215611f7e57600080fd5b81518015158114611b5957600080fd5b600080835481600182811c915080831680611faa57607f831692505b60208084108203611fc957634e487b7160e01b86526022600452602486fd5b818015611fdd5760018114611ff25761201f565b60ff198616895284151585028901965061201f565b60008a81526020902060005b868110156120175781548b820152908501908301611ffe565b505084890196505b509498975050505050505050565b60006020828403121561203f57600080fd5b8151611b5981611bf6565b6000821982111561205d5761205d611ea6565b500190565b60006001600160e01b038281168482168115158284048211161561208857612088611ea6565b02949350505050565b60006001600160e01b03838116806120ab576120ab611f26565b9216919091049291505056feddf252ad1be2c89b69c2b068fc378daa952ba7f163c4a11628f55a4df523b3efa264697066735822122007c6774221d148f90a42f580cfed77f98225765754ed74e1bfcd4b8964162b8964736f6c634300080f0033",
    "linkReferences": {}
  },
  "methodIdentifiers": {
    "DOMAIN_SEPARATOR()": "3644e515",
    "PERMIT_TYPEHASH()": "30adf81f",
    "allowance(address,address)": "dd62ed3e",
    "approve(address,uint256)": "095ea7b3",
    "balanceOf(address)": "70a08231",
    "burn(address)": "89afcb44",
    "decimals()": "313ce567",
    "factory()": "c45a0155",
    "getReserves()": "0902f1ac",
    "initialize(address,address)": "485cc955",
    "kLast()": "7464fc3d",
    "mint(address)": "6a627842",
    "name()": "06fdde03",
    "nonces(address)": "7ecebe00",
    "permit(address,address,uint256,uint256,uint8,bytes32,bytes32)": "d505accf",
    "price0CumulativeLast()": "5909c0d5",
    "price1CumulativeLast()": "5a3d5493",
    "skim(address)": "bc25cf77",
    "swap(uint256,uint256,address,bytes)": "022c0d9f",
    "symbol()": "95d89b41",
    "sync()": "fff6cae9",
    "token0()": "0dfe1681",
    "token1()": "d21220a7",
    "totalSupply()": "18160ddd",
    "transfer(address,uint256)": "a9059cbb",
    "transferFrom(address,address,uint256)": "23b872dd"
  },
  "id": 15
}